:100000002FC06193089581910895F89508959DE911
:1000100094BF80930010909102109370E1F70895BF
:100020009091040895FFFCCF809302080895809179
:10003000040887FFFCCF909101088091000892FF8F
:10004000A895179A0895F3DF803209F0D9CF84E19B
:10005000E7CFCF93C82FEBDFC150E9F7CF91F3CFB4
:10006000112480914000809340008CBB811105C019
:1000700098ED21E094BF20934100E39902C08430C1
:1000800008F4BEC0079A83E08093E2059AE8909353
:1000900008088093070880EC8093060886E0179A8A
:1000A0002AE238E69091040897FD05C021503109F5
:1000B000C9F78150A1F788ED98E084BF90930001C3
:1000C000C12C2DE7D22EB3DF813479F4B0DFF82EC6
:1000D000BADF82E8F81631F0A1E883E0FA1619F0E9
:1000E00082E301C087E49CDF04C0823429F484E108
:1000F000B0DF80E195DFE7CF853411F485E0F8CFFC
:10010000853531F494DF082F92DF182F9CDFF1CF73
:10011000843609F03CC08BDFD82F89DFF82EC82F3A
:1001200086DFE82E4E01E3E89E1AA12C9DE7B92E4A
:100130007EDFD5018D935D01A815B905C9F7B6E439
:10014000EB1211C09E0136952795F801D60188E083
:100150005EDFE89582E05BDF0D901D90F8952A95B3
:10016000D9F71124D3CFF5E4EF120BC01C5E83E165
:100170004EDF8F2DF801D6010D9001928A95E1F79F
:10018000C5CF88E044DFD8011C9282E0F1CF8437EC
:10019000E1F44DDFD82F4BDFC82F49DFF82E53DFB6
:1001A000F6E4FF1206C0F80187913ADF2197E1F7E4
:1001B000A0CFF5E4FF1201C01C5EF80180810F5F43
:1001C0001F4F2EDF2197C9F794CF853749F43BDFC6
:1001D0008EE126DF8091011123DF8091021183CF10
:0801E000649A94CFBCF77AE6A3
:00000001FF
