:100000002FC06193089581910895F89508959DE911
:1000100094BF80930010909106109370E1F70895BB
:100020009091440895FFFCCF8093420808958091F9
:10003000440887FFFCCF909141088091400892FFCF
:10004000A895179A0895F3DF803209F0D9CF84E19B
:10005000E7CFCF93C82FEBDFC150E9F7CF91F3CFB4
:10006000112480914000809340008CBB811105C019
:1000700098ED21E094BF209341008B7009F0C0C03F
:10008000079A81E08093E3058091521083FF2AC094
:100090008CE58093480888E08093B50483E08093E2
:1000A000470880EC8093460886E0179A20E23EE4F9
:1000B0009091440897FD05C021503109C9F781503E
:1000C000A1F788ED98E084BF90930001B0DF813400
:1000D00069F4ADDFF82EB7DF82E8F81629F083E384
:1000E0009FDF08C083E7D5CF88E4FACF823429F4B4
:1000F00084E1AFDF80E194DFE9CF853411F485E05E
:10010000F8CF853531F493DFC82F91DFD82F9BDFEF
:10011000F1CF843609F02CC08ADF182F88DF082F32
:1001200086DFF82E80E073DFE6E4FE1211C098014E
:1001300036952795FE017BDF082E79DF182EF8957E
:100140002A95C9F7112455E0F52E8F2D60DFDFCFFA
:10015000F5E4FF120AC0DC5E95E1F92E68DF8883C2
:10016000219601501109D1F7F0CF85E0F82EF6CF96
:100170008437E9F45CDF182F5ADFF82E082F57DF99
:10018000D82E61DF86E4D81207C02F2DFE0187919B
:1001900047DF2A95E1F7AECFF5E4DF1201C0DC5E60
:1001A000888121963DDF01501109D1F7A3CF853712
:1001B00049F449DF8EE134DF8091011131DF809114
:0C01C00002118ECFA49AA3CF2355E28D2C
:00000001FF
