:100000002FC06193089581910895F8950895909176
:1000100002109370E1F79DE994BF8093001008955A
:100020009091040895FFFCCF809302080895809179
:10003000040887FFFCCF909101088091000892FF8F
:10004000A895779A0895F3DF803209F0D9CF84E13B
:10005000E7CFCF93C82FEBDFC150E9F7CF91F3CFB4
:10006000112480914000809340008CBB811105C019
:1000700098ED21E094BF209341008B7009F0C0C03F
:10008000679A8AE88093080888E08093110483E0E7
:100090008093070880EC8093060886E0779A2AE22E
:1000A00038E69091040897FD05C021503109C9F741
:1000B0008150A1F788ED98E084BF90930001E12C76
:1000C0002DE7F22EB4DF813459F4B1DFD82EBBDF37
:1000D00082E8D81203C088E4A3DF06C082E3FCCF25
:1000E000823429F484E1B5DF80E19ADFEBCF8534F7
:1000F00011F485E0F8CF853531F499DF082F97DFCB
:10010000182FA1DFF1CF843609F03AC090DFD82F45
:100110008EDFC82F8CDFB82E4E01A3E89A1AC12CAF
:100120009DE7D92E84DFF60181936F01E815F9056B
:10013000C9F7F6E4BF1211C09E0136952795F80164
:10014000D70188E064DFE89582E061DF0D901D90C3
:10015000F8952A95D9F71124D4CFF5E4BF120AC037
:100160001C5E83E154DFF801D7010D9001922197C5
:10017000E1F7C7CF88E04BDFD8011C9282E0F2CFD5
:100180008437E1F454DFD82F52DFC82F50DFD82E48
:100190005ADFF6E4DF1206C0F801879141DF2197AC
:1001A000E1F7A2CFF5E4DF1201C01C5EF801808107
:1001B0000F5F1F4F35DF2197C9F796CF853749F479
:1001C00042DF8EE12DDF809101112ADF8091021143
:0A01D00083CF009A96CFD7D457DDF5
:00000001FF
