:100000002FC009C09DE994BF809300108091061015
:100010008370E1F70895FC010B01E8951124089520
:100020009091040895FFFCCF809302080895809179
:10003000040887FFFCCF909101088091000892FF8F
:10004000A895179A0895F3DF803209F0D9CF84E19B
:10005000E7CFCF93C82FEBDFC150E9F7CF91F3CFB4
:10006000112480914000809340008CBB811105C019
:1000700098ED21E094BF20934100E39902C08430C1
:1000800008F4BEC0079A8091521083FF2AC08CE505
:100090008093080883E08093070880EC809306082B
:1000A00086E0179A28E93AE39091040897FD05C085
:1000B00021503109C9F78150A1F788ED98E084BF3C
:1000C00090930001B4DF813489F4B1DFF82EBBDFF7
:1000D00082E8F81641F0E1E883E0FE1629F085E0B9
:1000E00003C083E7D5CF87E09BDF04C0823429F4C7
:1000F00084E1AFDF80E194DFE5CF853411F485E062
:10010000F8CF853531F493DFC82F91DFD82F9BDFEF
:10011000F1CF843619F58BDF182F89DF082F87DFA1
:10012000F82E80E06FDFF5E4FF120AC0DC5E7FDFAF
:100130008883219601501109D1F785E163DFE7CF6C
:10014000980136952795FE0172DF082E70DF182E74
:10015000F8952A95C9F7112485E0F0CF8437D1F4BA
:1001600066DF182F64DFF82E082F61DFE82E6BDFC3
:10017000F6E4EF1207C02F2DFE01879151DF2A957B
:10018000E1F7B8CFDC5E888121964ADF0150110982
:10019000D1F7B0CF853749F456DF8EE141DF80914A
:0E01A00081103EDF809182109FCF009AB0CF79
:00000001FF
