:100000002FC06193089581910895F8950895909176
:1000100002109370E1F79DE994BF8093001008955A
:100020009091240895FFFCCF809322080895809139
:10003000240887FFFCCF909121088091200892FF2F
:10004000A895529A0895F3DF803209F0D9CF84E160
:10005000E7CFCF93C82FEBDFC150E9F7CF91F3CFB4
:10006000112480914000809340008CBB811105C019
:1000700098ED21E094BF209341008B7009F0C0C03F
:10008000429A80E18093E2058AE88093280888E01C
:100090008093770483E08093270880EC8093260880
:1000A00086E0529A2AE238E69091240897FD05C02E
:1000B00021503109C9F78150A1F788ED98E084BF3C
:1000C00090930001E12C2DE7F22EB1DF813459F439
:1000D000AEDFD82EB8DF82E8D81203C088E4A0DFF4
:1000E00006C082E3FCCF823429F484E1B2DF80E1F0
:1000F00097DFEBCF853411F485E0F8CF853531F407
:1001000096DF082F94DF182F9EDFF1CF843609F099
:100110003AC08DDFD82F8BDFC82F89DFB82E4E0174
:10012000A3E89A1AC12C9DE7D92E81DFF6018193AD
:100130006F01E815F905C9F7F6E4BF1211C09E0179
:1001400036952795F801D70188E061DFE89582E0D0
:100150005EDF0D901D90F8952A95D9F71124D4CF24
:10016000F5E4BF120AC01C5E83E151DFF801D7013C
:100170000D9001922197E1F7C7CF88E048DFD801C1
:100180001C9282E0F2CF8437E1F451DFD82F4FDFA9
:10019000C82F4DDFD82E57DFF6E4DF1206C0F80176
:1001A00087913EDF2197E1F7A2CFF5E4DF1201C08E
:1001B0001C5EF80180810F5F1F4F32DF2197C9F766
:1001C00096CF853749F43FDF8EE12ADF8091011118
:1001D00027DF8091021183CF669A96CFA40A1588F3
:00000001FF
