:1000000032C06193089581910895F8950895909173
:1000100006109370E1F79DE994BF1092001094BF11
:100020008093001008959091040895FFFCCF809371
:10003000020808958091040887FFFCCF9091010881
:100040008091000892FFA895179A0895F3DF8032F7
:1000500009F0D6CF84E1E7CFCF93C82FEBDFC150B3
:10006000E9F7CF91F3CF11248091400080934000B5
:100070008CBB811105C098ED21E094BF2093410015
:100080008B7009F0BDC0079A82E08093E2058AE890
:100090008093080888E08093130483E08093070826
:1000A00080EC8093060886E0179A2AE238E6909161
:1000B000040897FD05C021503109C9F78150A1F707
:1000C00088ED98E084BF90930001E12C2DE7F22E9B
:1000D000B1DF813459F4AEDFD82EB8DF82E8D81210
:1000E00003C088E4A0DF06C084E3FCCF823429F497
:1000F00084E1B2DF80E197DFEBCF853411F485E056
:10010000F8CF853531F496DF082F94DF182F9EDF66
:10011000F1CF843609F03AC08DDFD82F8BDFC82F9E
:1001200089DFB82E4E01A3E89A1AC12C9DE7D92E7B
:1001300081DFF60181936F01E815F905C9F7F6E44F
:10014000BF1211C09E0136952795F801D70188E0AE
:100150005EDFE89582E05BDF0D901D90F8952A95B3
:10016000D9F71124D4CFF5E4BF120AC01C5E83E195
:100170004EDFF801D7010D9001922197E1F7C7CF2B
:1001800088E045DFD8011C9282E0F2CF8437E1F4A9
:1001900051DFD82F4FDFC82F4DDFD82E57DFF6E4C1
:1001A000DF1206C0F80187913EDF2197E1F7A2CF69
:1001B000F5E4DF1201C01C5EF80180810F5F1F4F64
:1001C00032DF2197C9F796CF853749F43FDF8EE1BB
:1001D0002ADF8091811027DF8091821083CF029ADD
:0601E00096CFFE515034E1
:00000001FF
