:100000002FC06193089581910895F89508959DE911
:1000100094BF80930010909102109370E1F70895BF
:100020009091240895FFFCCF809322080895809139
:10003000240887FFFCCF909121088091200892FF2F
:10004000A895529A0895F3DF803209F0D9CF84E160
:10005000E7CFCF93C82FEBDFC150E9F7CF91F3CFB4
:10006000112480914000809340008CBB811105C019
:1000700098ED21E094BF20934100E39902C08430C1
:1000800008F4BEC0429A80E18093E2058AE880933A
:10009000280883E08093270880EC8093260886E078
:1000A000529A2AE238E69091240897FD05C0215023
:1000B0003109C9F78150A1F788ED98E084BF90938A
:1000C0000001C12C2DE7D22EB2DF813479F4AFDFED
:1000D000F82EB9DF82E8F81631F0A1E883E0FA16CD
:1000E00019F082E301C087E49BDF04C0823429F465
:1000F00084E1AFDF80E194DFE7CF853411F485E060
:10010000F8CF853531F493DF082F91DF182F9BDF6F
:10011000F1CF843609F03CC08ADFD82F88DFF82E73
:10012000C82F85DFE82E4E01E3E89E1AA12C9DE73B
:10013000B92E7DDFD5018D935D01A815B905C9F7ED
:10014000B6E4EB1211C09E0136952795F801D60151
:1001500088E05DDFE89582E05ADF0D901D90F8950C
:100160002A95D9F71124D3CFF5E4EF120BC01C5E0A
:1001700083E14DDF8F2DF801D6010D9001928A9514
:10018000E1F7C5CF88E043DFD8011C9282E0F1CFD0
:100190008437E1F44CDFD82F4ADFC82F48DFF82E30
:1001A00052DFF6E4FF1206C0F801879139DF21978C
:1001B000E1F7A0CFF5E4FF1201C01C5EF8018081D9
:1001C0000F5F1F4F2DDF2197C9F794CF853749F473
:1001D0003ADF8EE125DF8091011122DF809102114B
:0A01E00083CF669A94CFA251D57C1C
:00000001FF
