:100000002FC009C09DE994BF809300108091061015
:100010008370E1F70895FC010B01E8951124089520
:100020009091440895FFFCCF8093420808958091F9
:10003000440887FFFCCF909141088091400892FFCF
:10004000A895179A0895F3DF803209F0D9CF84E19B
:10005000E7CFCF93C82FEBDFC150E9F7CF91F3CFB4
:10006000112480914000809340008CBB811105C019
:1000700098ED21E094BF20934100E39902C08430C1
:1000800008F4BEC0079A8091521083FF27C08CE508
:100090008093480883E08093470880EC809346086B
:1000A00086E0179A28E93AE39091440897FD05C045
:1000B00021503109C9F78150A1F788ED98E084BF3C
:1000C00090930001B4DF813469F4B1DFF82EBBDF17
:1000D00082E8F81205C087E0A3DF08C083E7D8CF25
:1000E00083E0FACF823429F484E1B3DF80E198DF42
:1000F000E9CF853411F485E0F8CF853531F497DF09
:10010000C82F95DFD82F9FDFF1CF843619F58FDF09
:10011000182F8DDF082F8BDFF82E80E073DFE5E4EA
:10012000FE120AC0DC5E83DF88832196015011092C
:10013000D1F785E167DFE7CF980136952795FE0176
:1001400076DF082E74DF182EF8952A95C9F711244A
:1001500085E0F0CF8437D1F46ADF182F68DFF82EFE
:10016000082F65DFE82E6FDFF6E4EF1207C02F2DB2
:10017000FE01879155DF2A95E1F7B8CFDC5E8881D3
:1001800021964EDF01501109D1F7B0CF853749F4E0
:100190005ADF8EE145DF8091011142DF809102112B
:0601A0009BCFA09AB0CF36
:00000001FF
