:100000002FC009C09DE994BF809300108091061015
:100010008370E1F70895FC010B01E8951124089520
:100020009091440895FFFCCF8093420808958091F9
:10003000440887FFFCCF909141088091400892FFCF
:10004000A895179A0895F3DF803209F0D9CF84E19B
:10005000E7CFCF93C82FEBDFC150E9F7CF91F3CFB4
:10006000112480914000809340008CBB811105C019
:1000700098ED21E094BF20934100E39902C08430C1
:1000800008F4BEC0079A81E08093E3058091521086
:1000900083FF27C08CE58093480883E0809347085E
:1000A00080EC8093460886E0179A28E93AE390911D
:1000B000440897FD05C021503109C9F78150A1F7C7
:1000C00088ED98E084BF90930001B1DF813469F43A
:1000D000AEDFF82EB8DF82E8F81205C087E0A0DFB7
:1000E00008C083E7D8CF83E0FACF823429F484E1D3
:1000F000B0DF80E195DFE9CF853411F485E0F8CFFA
:10010000853531F494DFC82F92DFD82F9CDFF1CFF3
:10011000843619F58CDF182F8ADF082F88DFF82E38
:1001200080E070DFE5E4FE120AC0DC5E80DF8883D9
:10013000219601501109D1F785E164DFE7CF9801DD
:1001400036952795FE0173DF082E71DF182EF8957E
:100150002A95C9F7112485E0F0CF8437D1F467DF01
:10016000182F65DFF82E082F62DFE82E6CDFF6E42B
:10017000EF1207C02F2DFE01879152DF2A95E1F77C
:10018000B8CFDC5E888121964BDF01501109D1F791
:10019000B0CF853749F457DF8EE142DF80910111FE
:0C01A0003FDF809102119BCFA49AB0CFEA
:00000001FF
