:100000002FC06193089581910895F89508959DE911
:1000100094BF80930010909106109370E1F70895BB
:100020009091040895FFFCCF809302080895809179
:10003000040887FFFCCF909101088091000892FF8F
:10004000A895179A0895F3DF803209F0D9CF84E19B
:10005000E7CFCF93C82FEBDFC150E9F7CF91F3CFB4
:10006000112480914000809340008CBB811105C019
:1000700098ED21E094BF209341008B7009F0C0C03F
:10008000079A8091521083FF2AC08CE5809308085C
:1000900088E08093110483E08093070880EC8093CC
:1000A000060886E0179A20E23EE49091040897FD46
:1000B00005C021503109C9F78150A1F788ED98E0BA
:1000C00084BF90930001B3DF813469F4B0DFF82E70
:1000D000BADF82E8F81629F083E3A2DF08C083E7DD
:1000E000D5CF88E4FACF823429F484E1B2DF80E10D
:1000F00097DFE9CF853411F485E0F8CF853531F409
:1001000096DFC82F94DFD82F9EDFF1CF843609F019
:100110002CC08DDF182F8BDF082F89DFF82E80E0B1
:1001200076DFE6E4FE1211C0980136952795FE01B0
:100130007EDF082E7CDF182EF8952A95C9F711244A
:1001400055E0F52E8F2D63DFDFCFF5E4FF120AC0F7
:10015000DC5E95E1F92E6BDF888321960150110951
:10016000D1F7F0CF85E0F82EF6CF8437E9F45FDFE2
:10017000182F5DDFF82E082F5ADFD82E64DF86E4B3
:10018000D81207C02F2DFE0187914ADF2A95E1F78B
:10019000AECFF5E4DF1201C0DC5E8881219640DF3E
:1001A00001501109D1F7A3CF853749F44CDF8EE117
:1001B00037DF8091011134DF809102118ECF009AD8
:0601C000A3CFCF6879A96E
:00000001FF
