:100000000DC009C09DE994BF809300108091061037
:100010008370E1F70895FC016083089511248091B5
:100020004000811105C098ED21E094BF209341006C
:1000300083FD02C0823021F4809340008CBBE0C07D
:1000400088E0B3D01092E2058091521083FF2CC05B
:100050008CE580934808A09A83E08093470880EC61
:1000600080934608079A86E0179A20E23EE4A89516
:100070009091440897FD06C021503109C1F7815085
:1000800099F7A89520E1E22EB12C83D0813491F428
:1000900080D0F82E93D082E8F81641F081E8F81667
:1000A00039F083E06FD00AC083E7D3CF82E0FACF84
:1000B00089E2F8CF823429F484E188D080E162D0EB
:1000C000E4CF853411F485E0F8CF853531F461D083
:1000D000C82F5FD0D82F72D0F1CF843631F559D0E8
:1000E000182F57D0082F55D0F82E80E08BDF86E4EC
:1000F000F81217C0D7FD10C0D05888ED84BFB09259
:10010000011095E0F92E45D0888321960150110900
:10011000D1F78F2D77DFDFCF88ED84BFE09201101C
:10012000F0CFDC5E85E1F82EEECF8437F9F431D0E4
:10013000182F2FD0082F2DD0F82E40D086E4F8129B
:1001400013C0D7FD0CC0D05888ED84BFB092011009
:100150008881219617D001501109D1F7AFCF88EDD2
:1001600084BFE0920110F4CFDC5EF2CF853709F056
:10017000B2CF24D08EE106D08091011103D08091BE
:10018000021190CF9091440895FFFCCF80934208D4
:1001900008958091440887FFFCCF90914108809199
:1001A000400892FFA895179A08959091010190FD3B
:1001B000FCCF98ED94BF809300010895EADF803270
:1001C00019F081E0F2DFFFCF84E1DCCFCF93C82FBD
:0A01D000E0DFC150E9F7CF91F1CF55
:0201FE000229D4
:00000001FF
