:100000002FC06193089581910895F89508959DE911
:1000100094BF80930010909106109370E1F70895BB
:100020009091040895FFFCCF809302080895809179
:10003000040887FFFCCF909101088091000892FF8F
:10004000A895179A0895F3DF803209F0D9CF84E19B
:10005000E7CFCF93C82FEBDFC150E9F7CF91F3CFB4
:10006000112480914000809340008CBB811105C019
:1000700088ED91E084BF90934100E39B01C0C0C034
:10008000079A8091521083FF2DC08CE58093080859
:1000900088E08093110483E08093070880EC8093CC
:1000A000060886E0179A20E23EE49091040897FD46
:1000B00005C021503109C9F78150A1F788ED98E0BA
:1000C00084BF90930001B3DF813489F4B0DFF82E50
:1000D000BADF82E8F81641F0E1E885E3FE1205C0D8
:1000E00083E003C083E7D2CF87E49ADF04C0823481
:1000F00029F484E1AEDF80E193DFE5CF853411F4AC
:1001000085E0F8CF853531F492DFC82F90DFD82F06
:100110009ADFF1CF843609F02CC089DF182F87DFF2
:10012000082F85DFF82E80E072DFF6E4FF1211C0A1
:10013000980136952795FE017ADF082E78DF182E74
:10014000F8952A95C9F7112455E0F52E8F2D5FDF1C
:10015000DFCFF5E4FF120AC0DC5E95E1F92E67DF20
:100160008883219601501109D1F7F0CF85E0F82E50
:10017000F6CF8437E9F45BDF182F59DFF82E082F0C
:1001800056DFD82E60DF86E4D81207C02F2DFE017F
:10019000879146DF2A95E1F7AECFF5E4DF1201C083
:1001A000DC5E888121963CDF01501109D1F7A3CF95
:1001B000853749F448DF8EE133DF8091811030DFED
:0E01C0008091821092CF009AA3CF6730348FC7
:00000001FF
