:100000002FC06193089581910895F89508959DE911
:1000100094BF80930010909102109370E1F70895BF
:100020009091240895FFFCCF809322080895809139
:10003000240887FFFCCF909121088091200892FF2F
:10004000A895529A0895F3DF803209F0D9CF84E160
:10005000E7CFCF93C82FEBDFC150E9F7CF91F3CFB4
:10006000112480914000809340008CBB811105C019
:1000700098ED21E094BF20934100E39902C08430C1
:1000800008F4BEC0429A80E18093E2058AE880933A
:10009000280883E08093270880EC8093260886E078
:1000A000529A2AE238E69091240897FD05C0215023
:1000B0003109C9F78150A1F788ED98E084BF90938A
:1000C0000001E12C2DE7F22EB2DF813479F4AFDFAD
:1000D000D82EB9DF82E8D81631F0A1E882E3DA122F
:1000E00003C083E001C087E49BDF04C0823429F4AD
:1000F00084E1AFDF80E194DFE7CF853411F485E060
:10010000F8CF853531F493DF082F91DF182F9BDF6F
:10011000F1CF843609F03AC08ADFD82F88DFC82FA4
:1001200086DFB82E4E01B3E89B1AC12C9DE7D92E6D
:100130007EDFF60181936F018E169F06C9F7F6E404
:10014000BF1211C09E0136952795F801D70188E0AE
:100150005EDFE89582E05BDF0D901D90F8952A95B3
:10016000D9F71124D4CFF5E41C5E83E1BF1629F042
:1001700088E04DDF10828F0182E049DF8C2FF8018B
:10018000D7010D9001928A95E1F7C1CF8437E1F450
:100190004EDFD82F4CDFC82F4ADFD82E54DFF6E4CD
:1001A000DF1206C0F80187913BDF2197E1F7A2CF6C
:1001B000F5E4DF1201C01C5EF80180810F5F1F4F64
:1001C0002FDF2197C9F796CF853749F43CDF8EE1C1
:1001D00027DF8091011124DF8091021185CF669A7B
:0601E00096CFFB8A68A81F
:00000001FF
