:100000002FC06193089581910895F89508959DE911
:1000100094BF80930010909102109370E1F70895BF
:100020009091240895FFFCCF809322080895809139
:10003000240887FFFCCF909121088091200892FF2F
:10004000A895529A0895F3DF803209F0D9CF84E160
:10005000E7CFCF93C82FEBDFC150E9F7CF91F3CFB4
:10006000112480914000809340008CBB811105C019
:1000700098ED21E094BF20934100E39902C08430C1
:1000800008F4BEC0429A80E18093E2058AE880933A
:10009000280888E08093770483E08093270880EC29
:1000A0008093260886E0529A2AE238E69091240846
:1000B00097FD05C021503109C9F78150A1F788ED9E
:1000C00098E084BF90930001E12C2DE7F22EAFDF82
:1000D000813479F4ACDFD82EB6DF82E8D81631F05F
:1000E000A1E883E0DA1619F082E301C087E498DF23
:1000F00004C0823429F484E1ACDF80E191DFE7CFF2
:10010000853411F485E0F8CF853531F490DF082F80
:100110008EDF182F98DFF1CF843609F03BC087DFE0
:10012000D82F85DFB82EC82F82DFA82E4E01E3E836
:100130009E1AC12C9DE7D92E7ADFD6018D936D01D1
:10014000A815B905C9F7B6E4AB1211C09E013695E2
:100150002795F801D70188E05ADFE89582E057DF5C
:100160000D901D90F8952A95D9F71124D3CFF5E479
:10017000AF120AC01C5E83E14ADFF801D7010D907F
:100180000192BA94E1F7C6CF88E041DFD8011C9212
:1001900082E0F2CF8437E1F44ADFD82F48DFC82F5E
:1001A00046DFD82E50DFF6E4DF1206C0F801879153
:1001B00037DF2197E1F7A1CFF5E4DF1201C01C5E24
:1001C000F80180810F5F1F4F2BDF2197C9F795CF73
:1001D000853749F438DF8EE123DF8091011120DF7C
:0E01E0008091021184CF669A95CFB8ECD08F33
:00000001FF
