:100000002FC06193089581910895F89508959DE911
:1000100094BF80930010909102109370E1F70895BF
:100020009091240895FFFCCF809322080895809139
:10003000240887FFFCCF909121088091200892FF2F
:10004000A895529A0895F3DF803209F0D9CF84E160
:10005000E7CFCF93C82FEBDFC150E9F7CF91F3CFB4
:10006000112480914000809340008CBB811105C019
:1000700098ED21E094BF209341008B7009F0C0C03F
:10008000429A80E18093E2058AE88093280888E01C
:100090008093770483E08093270880EC8093260880
:1000A00086E0529A2AE238E69091240897FD05C02E
:1000B00021503109C9F78150A1F788ED98E084BF3C
:1000C00090930001E12C2DE7F22EB1DF813479F419
:1000D000AEDFD82EB8DF82E8D81631F0A1E883E091
:1000E000DA1619F082E301C087E49ADF04C0823493
:1000F00029F484E1AEDF80E193DFE7CF853411F4AA
:1001000085E0F8CF853531F492DF082F90DF182F86
:100110009ADFF1CF843609F03AC089DFD82F87DF24
:10012000C82F85DFB82E4E01B3E89B1AC12C9DE77E
:10013000D92E7DDFF60181936F01E815F905C9F726
:10014000F6E4BF1211C09E0136952795F801D7013C
:1001500088E05DDFE89582E05ADF0D901D90F8950C
:100160002A95D9F71124D4CFF5E4BF120AC01C5E3A
:1001700083E14DDFF801D7010D9001922197E1F75E
:10018000C7CF88E044DFD8011C9282E0F2CF8437E9
:10019000E1F44DDFD82F4BDFC82F49DFD82E53DFD6
:1001A000F6E4DF1206C0F80187913ADF2197E1F704
:1001B000A2CFF5E4DF1201C01C5EF80180810F5F61
:1001C0001F4F2EDF2197C9F796CF853749F43BDFC4
:1001D0008EE126DF8091011123DF8091021185CF0E
:0801E000669A96CFA4A9D892FB
:00000001FF
