:100000002FC06193089581910895F89508959DE911
:1000100094BF80930010909102109370E1F70895BF
:100020009091040895FFFCCF809302080895809179
:10003000040887FFFCCF909101088091000892FF8F
:10004000A895179A0895F3DF803209F0D9CF84E19B
:10005000E7CFCF93C82FEBDFC150E9F7CF91F3CFB4
:10006000112480914000809340008CBB811105C019
:1000700098ED21E094BF20934100E39902C08430C1
:1000800008F4BEC0079A83E08093E2059AE8909353
:10009000080898E0909375048093070880EC80939B
:1000A000060886E0179A2AE238E69091040897FD40
:1000B00005C021503109C9F78150A1F788ED98E0BA
:1000C00084BF90930001E12C2DE7F22EB0DF813444
:1000D00079F4ADDFD82EB7DF82E8D81631F0A1E889
:1000E00083E0DA1619F082E301C087E499DF04C0E7
:1000F000823429F484E1ADDF80E192DFE7CF8534FB
:1001000011F485E0F8CF853531F491DF082F8FDFCA
:10011000182F99DFF1CF843609F03BC088DFD82F44
:1001200086DFB82EC82F83DFA82E4E01E3E89E1A83
:10013000C12C9DE7D92E7BDFD6018D936D01A815CB
:10014000B905C9F7B6E4AB1211C09E0136952795E3
:10015000F801D70188E05BDFE89582E058DF0D9079
:100160001D90F8952A95D9F71124D3CFF5E4AF1255
:100170000AC01C5E83E14BDFF801D7010D900192AC
:10018000BA94E1F7C6CF88E042DFD8011C9282E042
:10019000F2CF8437E1F44BDFD82F49DFC82F47DF98
:1001A000D82E51DFF6E4DF1206C0F801879138DF60
:1001B0002197E1F7A1CFF5E4DF1201C01C5EF80141
:1001C00080810F5F1F4F2CDF2197C9F795CF8537AF
:1001D00049F439DF8EE124DF8091011121DF809124
:0C01E000021184CF649A95CF38784D7FCF
:00000001FF
