:100000002FC06193089581910895F89508959DE911
:1000100094BF80930010909102109370E1F70895BF
:100020009091040895FFFCCF809302080895809179
:10003000040887FFFCCF909101088091000892FF8F
:10004000A895779A0895F3DF803209F0D9CF84E13B
:10005000E7CFCF93C82FEBDFC150E9F7CF91F3CFB4
:10006000112480914000809340008CBB811105C019
:1000700098ED21E094BF20934100E39902C08430C1
:1000800008F4BEC0679A8AE88093080883E08093EA
:10009000070880EC8093060886E0779A2AE238E623
:1000A0009091040897FD05C021503109C9F781508E
:1000B000A1F788ED98E084BF90930001E12C2DE733
:1000C000F22EB5DF813479F4B2DFD82EBCDF82E8BE
:1000D000D81631F0A1E882E3DA1203C083E001C050
:1000E00087E49EDF04C0823429F484E1B2DF80E13A
:1000F00097DFE7CF853411F485E0F8CF853531F40B
:1001000096DF082F94DF182F9EDFF1CF843609F099
:100110003AC08DDFD82F8BDFC82F89DFB82E4E0174
:10012000B3E89B1AC12C9DE7D92E81DFF60181939C
:100130006F018E169F06C9F7F6E4BF1211C09E012B
:1001400036952795F801D70188E061DFE89582E0D0
:100150005EDF0D901D90F8952A95D9F71124D4CF24
:10016000F5E41C5E83E1BF1629F088E050DF1082C1
:100170008F0182E04CDF8C2FF801D7010D900192A6
:100180008A95E1F7C1CF8437E1F451DFD82F4FDFF3
:10019000C82F4DDFD82E57DFF6E4DF1206C0F80176
:1001A00087913EDF2197E1F7A2CFF5E4DF1201C08E
:1001B0001C5EF80180810F5F1F4F32DF2197C9F766
:1001C00096CF853749F43FDF8EE12ADF8091011118
:1001D00027DF8091021185CF009A96CF86333F9C0E
:00000001FF
